:020000040800F2
:10000000C0120020C10100088B520008774100088F
:10001000895200082D200008917600080000000099
:100020000000000000000000000000005571000802
:10003000B922000800000000317100083172000888
:10004000DB010008DB010008DB010008DB01000820
:10005000DB010008DB010008DB010008DB01000810
:10006000DB010008DB010008DB010008DB01000800
:10007000DB010008DB010008DB010008DB010008F0
:10008000DB010008DB010008DB010008DB010008E0
:10009000DB010008DB010008DB010008DB010008D0
:1000A000DB010008DB010008DB010008DB010008C0
:1000B000DB010008DB01000809730008DB01000810
:1000C000DB010008DB010008DB010008DB010008A0
:1000D000DB01000879760008DB010008857600085E
:1000E000DB010008DB010008DB01000800F002F87A
:1000F00000F057F80AA090E8000C82448344AAF16B
:100100000107DA4501D100F04CF8AFF2090EBAE868
:100110000F0013F0010F18BFFB1A43F0010318473B
:10012000F4C2000014C30000103A24BF78C878C19C
:10013000FAD8520724BF30C830C144BF04680C60ED
:10014000704700000023002400250026103A28BF35
:1001500078C1FBD8520728BF30C148BF0B60704739
:10016000662909F00C86642900F00681732900F0E5
:100170006A86002070471FB59DE8030000F084FBED
:1001800000F06AFE04000020002108F02DFD401C54
:1001900060600020002108F03DFDE0601FBD10B54B
:1001A00010BD00F077FF1146FFF7E5FF07F056FCA2
:1001B00000F095FF03B4FFF7F2FF03BC01F002F873
:1001C0000948804709480047FEE7FEE7FEE7FEE7EB
:1001D000FEE7FEE7FEE7FEE7FEE7FEE70448054927
:1001E000054A064B70470000AF720008ED0000089A
:1001F000C0080020C0120020C00C0020C00C00204D
:1002000070B5064600F024FB056806F10B0020F0EF
:100210000704B4429CBF002070BD2B466A68BAB187
:100220001068A04210D304F1080188423CBF506816
:10023000586007D35168101941601168091B0160AB
:1002400058601460101D70BD13465268002AE7D133
:100250002146284600F004FB0028DED170BD70B5B1
:100260000446051F00F0F4FA0068002C14BF44682F
:1002700070BD002C18BFAC423CBF20466468F8D368
:1002800001680A18AA4218BF456003D12A680546CA
:100290001144016028684119A1421CBF6C6070BD07
:1002A0006168696021680844286070BD10B5044623
:1002B00000F0C6FA0068005DC00602D504F1200017
:1002C00010BD204610BD00000FB41CB5074B06AA98
:1002D0007B4469460090059800F083FD0020694644
:1002E00000F092FD1CBC5DF814FB0000350B000013
:1002F0000FB41CB50C0007AA009001D02044401E8A
:10030000074B7B4469460190069800F06AFD002C7B
:1003100003D06946002000F077FD1CBC5DF814FB9B
:100320000D0B000070B50C460546012A05D0287853
:10033000800600D5EA69002302E0012305E05B1C8A
:10034000934202D2E05C0028F9D1A869E618C01AED
:10035000A861286A184428622846AFF3008004E0A8
:10036000D5E9012114F8010B9047B442F8D328468F
:10037000AFF3008070BD00002DE9F0410646002477
:1003800010687529314616A510D0AFF300800028FB
:1003900002DA404213A507E031688A0701D512A5A9
:1003A00002E0490704D511A5012401E0AFF3008064
:1003B00000210A2206F1240709E0B0FBF2FCB0FBA1
:1003C000F2F302FB1C00303078541846491C002818
:1003D000F3D123462A463046BDE8F04100F095BAF5
:1003E000000000002D0000002B0000002000000095
:1003F0002DE9F05F894604464FF0000ADFF824B18A
:10040000FB44C0F820A02046E168884700287DD042
:10041000252806D0D4E901219047206A401C20629B
:10042000F1E700255F462046E16888472028064618
:1004300007DB312E05D2B81910F8200C08B105439E
:10044000F1E7A80701D525F00405C4F81CA0002792
:10045000C4F818A02A2E09D0304607F0B3F938B3F3
:1004600004EB8708303EC8F8186019E059F8041BFF
:10047000204604EB87029161E1688847012F064618
:1004800018D1E069002820DA25F020051DE0D8F811
:10049000180000EB800006EB40003038C8F8180068
:1004A0002046E1688847064607F08CF90028EED11F
:1004B000012F0AD02E2E08D12046E16888477F1CE4
:1004C0000646022F45F02005C4DBA069002803DAA8
:1004D000404245F00105A061E80701D025F0100574
:1004E000A6B1A6F14100192802D8203645F40065CE
:1004F0004A463146204625604D46FFF731FE60B141
:10050000012807D0ED1D25F0070000E007E000F10D
:10051000080978E705F1040975E730467AE7206AAB
:10052000BDE8F09F8DBE0000401ECAB210F8011F4A
:100530008A4202D00029F9D10020704710B5431E2D
:1005400013F8014F002CFBD105E011F8014B002CF2
:1005500003F8014B03D0521EF7D20021197010BDD1
:1005600030B505460B462A4613F8014B12F8010B2D
:1005700008B1A042F8D01CB1002802D06D1CF1E7F0
:10058000284630BD40EA0103024630B59B0710D132
:100590004FF0013400E008C208C91D1B9D4315EA55
:1005A000C41FF8D013F0FF0102F8011B0DD01B0A85
:1005B000F8E711F8013B002B02F8013B05D011F8D8
:1005C000013B002B02F8013BF3D130BD10B5431CB9
:1005D00002E010F8011B71B18107FAD14FF001322E
:1005E00002C88C1A8C4314EAC211F9D0C01A0A0648
:1005F00003D0C01E10BDC01A10BD0A0401D0801E59
:1006000010BD0902FCD0401E10BD40EA010370B5C8
:100610009B072ED14FF00136042A2AD308C810C9EF
:100620009D1B9D43121F15EAC61517D0D8B2E1B223
:10063000401A50EA056110D198B2A1B2401A50EAAE
:1006400005410AD123F07F4024F07F41401A50EA4F
:10065000052102D1180EA0EB146070BDA342DBD0BF
:1006600018BA21BA884201D9012070BD4FF0FF307D
:1006700070BD0AB9002070BD10F8013B11F8014BA4
:1006800063B1A3420AD1521E08D010F8013B11F801
:10069000014B1BB1A34201D1521EEDD1181B70BDFD
:1006A000421E12F8013F002BFBD111F8013B002B39
:1006B00002F8013BF9D17047032A40F2308010F074
:1006C000030C00F0158011F8013BBCF1020F6244ED
:1006D00098BF11F801CB00F8013B38BF11F8013B7E
:1006E000A2F1040298BF00F801CB38BF00F8013B2B
:1006F00011F0030300F02580083AC0F0088051F89B
:10070000043B083A51F804CBA0E80810F5E7121DA5
:100710005CBF51F8043B40F8043BAFF30080D207C4
:1007200024BF11F8013B11F801CB48BF11F8012B90
:1007300024BF00F8013B00F801CB48BF00F8012BB3
:10074000704710B5203AC0F00B80B1E81850203A3D
:10075000A0E81850B1E81850A0E81850BFF4F5AF61
:100760005FEA027C24BFB1E81850A0E8185044BFEB
:1007700018C918C0BDE810405FEA827C24BF51F858
:10078000043B40F8043B08BF7047D20728BF31F84C
:10079000023B48BF11F8012B28BF20F8023B48BF9D
:1007A00000F8012B70474FF000020429C0F01280BE
:1007B00010F0030C00F01B80CCF1040CBCF1020F14
:1007C00018BF00F8012BA8BF20F8022BA1EB0C01E9
:1007D00000F00DB85FEAC17C24BF00F8012B00F8DF
:1007E000012B48BF00F8012B70474FF0000200B505
:1007F000134694469646203922BFA0E80C50A0E844
:100800000C50B1F12001BFF4F7AF090728BFA0E8F1
:100810000C5048BF0CC05DF804EB890028BF40F8BD
:10082000042B08BF704748BF20F8022B11F0804FFF
:1008300018BF00F8012B70477047704770470000E1
:1008400010B500F009FB001D10BD00BF9D83000026
:100850000048704764080020704770477047704731
:1008600038B504460A4600206946AFF300800028E8
:1008700008BF38BD02460099204600F0F5FA012075
:1008800038BD012000F0FEBBF8B5AFF3008005468F
:1008900000200C46102000BF0646A819A0420DD922
:1008A000324669460020AFF30080070008BF00F021
:1008B000E9FB0098A04218BF0546C419FFF7C8FF1E
:1008C00005600746F01D20F007004619284600F095
:1008D0000AF8B44208BFF8BDA21B31463868BDE82B
:1008E000F84000F0C1BA00210160C0E90110704772
:1008F0001020704710B500F0B3FA006810BD10B5B5
:10090000044600F0ADFA046010BD2DE9F0470D4635
:1009100099469246044600F124080168880604D5E9
:10092000E06921F01001216000E00120A84201DD12
:10093000471B00E00027A1697A1902EB0900081A99
:10094000A0612078C00602D42046AFF300800026C4
:1009500008E0D4E901211AF806009047206A401CFB
:10096000761C20624E45F4DB2078C0060AD520466E
:10097000AFF3008006E0D4E9012130209047206ADF
:10098000401C2062381EA7F10107F4DC07E0D4E91F
:10099000012118F805009047206A401C2062281E9B
:1009A000A5F10105F3DC2046AFF3008020780006B6
:1009B00002D50220BDE8F0870120FBE770472DE952
:1009C000FF4F0C461E464FF0FF378BB0D2E90001B7
:1009D000DDF860800A908A46C1F30A5505B93D46A4
:1009E000002108464FF00000BAF1000F00F440006B
:1009F00005DA00EB80004FF4400101EA50004FEAB5
:100A00009059B9F1010F00DDB9460A9850EA4A0041
:100A10000ED044F61050A5F2FF3545432F14B8F11F
:100A2000000F1ED07542291E1EDDC9F100021CE018
:100A3000B8F1010F4FF0000001D0302103E0F24384
:100A400005E02154401CB042FBDB3046002200216F
:100A500021540B99C1F80880C1E900200FB0BDE80E
:100A6000F08FBD1B6D1CDEE74A4600DA694206A81E
:100A700000F09AFA06AB93E8070003AB83E807009F
:100A800050460A9900F0C4FB8DE80700A0F500501D
:100A90001F3800900398002D09DD42F21F014A46DD
:100AA000084403A90390684600F023FE08E0A0F57F
:100AB00000504A461F3803A90390684600F02DFEF7
:100AC0008DE807000004000C03D04FF0FF30410810
:100AD00000E01046B8F1000F03D000220092154646
:100AE0001EE0751E05D400F0D9F9303262556D1E36
:100AF000F9D5B3460122084302D000227F1C04E04E
:100B00002078302801D100227F1E002A099786D044
:100B10001DE0112D07DA00F0C1F9303262556D1C6D
:100B200050EA0102F5D1084302D00098C8B10EE0A6
:100B30000021681E05E0235C625C63542254401E61
:100B4000491C8142F7DBAB46A81B401E09900020E0
:100B500004F80B000B98099AC0F80880C0E9002B34
:100B60007CE711264FF0000859E72DE9F04F884641
:100B70000446D21D22F0070191B0D1E90001CDE970
:100B80000A0106F086FD02460B98C00F01D02D2009
:100B900007E02068810701D52B2002E0202101EA2F
:100BA000C000032A099001D0072A05DB034641460D
:100BB000204600F0B9F90BE12078800601D5E06904
:100BC00000E00620B8F1650F814606D0B8F1660F47
:100BD00018D0B8F1670F70D131E00020B9F1110FD2
:100BE000009001DB112301E009F101030AAA01A928
:100BF0000CA8FFF7E4FEDDE90C70002609F1010501
:100C0000834647E001204B4600904FF000470AAA78
:100C100001A90CA8FFF7D3FEDDE90DB00C995D46E4
:100C2000002610B909F101000D18B9EB050003D435
:100C3000C0F1FF3609F10105A5EB09002BE0B9F180
:100C4000010F01DA4FF001090020B9F1110F0090F6
:100C5000484601DD112300E003460AAA01A90CA8B9
:100C6000FFF7ADFEDDE90C704D4600268346207887
:100C700000070AD4AB4500DA5D4601A8012D04DD6A
:100C8000411911F8011C302907D04F4502DA17F13C
:100C9000040F04DA012082460FE06D1EEEE7002FFC
:100CA00002DCED1B3E4403E0781CA84200DD7D1C05
:100CB000B81B00F1010A4FF000472078000703D469
:100CC000AA4501DB4FF0FF3A0021B7F1004F0DF1CB
:100CD00043088DF8431024D002202B23002F01DA83
:100CE0007F422D230A21021EA0F1010000DC5FB12A
:100CF00097FBF1FC97FBF1F201FB1C7C17460CF112
:100D0000300C08F801CDEEE7A8F10100037021884E
:100D1000090501D5452100E06521A0F1010800F891
:100D2000011C09980FA9A1EB0807FF1D00B10120C4
:100D3000411901EBEA70A1693844081A401EA0610C
:100D40002078C00602D42046AFF30080099828B16D
:100D5000D4E901219047206A401C20622078C00617
:100D600022D52046AFF300801EE0002E04DBB34501
:100D700002DD01A8805D00E03020D4E90121904728
:100D8000206A401C2062761CAAF101005FEA000A7A
:100D90000AD100F061F8C0680168405CD4E9012123
:100DA0009047206A401C2062281EA5F10105DCDC6A
:100DB00007E0D4E9012118F8010B9047206A401C94
:100DC0002062381EA7F10107F3DC2046AFF3008054
:100DD000032011B043E6000001694A1C0261087853
:100DE000704700B58FB0CDE901310021059105496B
:100DF0007944CDE9031011466846FFF7F9FA0FB0C0
:100E000000BD0000E5FFFFFF0A6802F8010B0A6061
:100E10007047D1E900239A4202D2531C0B60107034
:100E2000704710B5436913B1AFF3008001E0FFF7DD
:100E300079FA012010BD127800F124010A70002215
:100E40004A700122EDE711684FF0FF32E9E7000038
:100E5000004870475C080020004870477C0800206C
:100E6000004870475C080020034640688C46002814
:100E700018BF88423CBF03464068F8D3186818443E
:100E8000884207D00CF1030020F00700001D411A32
:100E9000521A0146081D0A60FFF7E1B930B5B0F1FA
:100EA0000A024FEA900E71F100034EEA817EB0EB28
:100EB0000E0061EB91014FEA101E4EEA017E10EB2D
:100EC0000E0041EB11114FEA102E4EEA016E10EBAD
:100ED0000E0041EB11214FEA104E4EEA014E10EB8D
:100EE0000E0041EB1141401841F100014FEAD000E2
:100EF00040EA41704FEAD10110EB80054FEA8104CE
:100F000044EA907444EB01046D1944EB0404521B51
:100F1000A3414FF0000348BF0A3200D530BD401C4A
:100F200041F1000130BD00002DE9F0411F460446AB
:100F300003260168072A01F4006004DB08B116A546
:100F400005E016A503E008B115A500E015A521F000
:100F500010002060A069C01EA0610FB1401EA061FA
:100F60002046AFF300804FB1D4E9012138469047C5
:100F7000206A401C2062C01C206206E0206AFAE75A
:100F8000D4E9012115F8010B9047761EF8D22046CE
:100F9000AFF30080BDE8F0814E414E006E616E00FF
:100FA000494E4600696E66002DE9F04781461646B7
:100FB0008AB0334878440DC88DE80D003048784435
:100FC000801C03AC0DC884E80D0041F69B3008443A
:100FD000372190FBF1F290FBF1F5A5F1800501FBC3
:100FE00012041B3C02D56442012000E00020DFF81F
:100FF00090A080460027FA44AAF1BE0A0DE0E0075F
:1010000009D03246684607EB47010AEB810100F040
:1010100084FB8DE8070064107F1C002CEFD1184F73
:101020007F44AC3F18E0E80714D007EB04100DF143
:10103000180A90E80E008AE80E00C068F04201D15C
:1010400098190890324606A903A800F066FB03AB86
:1010500083E807006D10641C002DE4D13246694618
:10106000B8F1000F03A802D000F043FB01E000F04C
:1010700054FBC9E90001C9F808200AB0BDE8F087AF
:10108000FCB3000010B500F035F8BDE8104000F0EA
:101090002CB870477546FFF7DBFEAE460500694683
:1010A000534620F00700854618B020B5FFF796F8A4
:1010B000BDE820404FF000064FF000074FF0000859
:1010C0004FF0000B21F00701AC46ACE8C009ACE8DA
:1010D000C009ACE8C009ACE8C0098D4670470446B9
:1010E000AFF300802046FFF765F8002801D000F03C
:1010F00069B8704710B5012805D0002103A000F0A1
:1011000067F8012010BD09A1F8E7000053494752D4
:10111000544D454D3A204F7574206F6620686561C7
:1011200070206D656D6F7279000000003A2048658F
:101130006170206D656D6F727920636F727275706A
:10114000746564004FF0013C50F8042B51F8043BE7
:101150009A4221D1A2EB0C03934313EACC1317D18B
:1011600050F8042B51F8043B9A4215D1A2EB0C0322
:10117000934313EACC130BD150F8042B51F8043BE2
:101180009A4209D1A2EB0C03934313EACC13DBD0B0
:101190004FF00000704700BFD01A01BAB1FA81F1D8
:1011A00001F0180122FA01F0CB40C1F12001DBB2BD
:1011B000C0B2C01A2CFA01F3D11A914311EAC3113B
:1011C000E6D1704701491820ABBEFEE726000200B9
:1011D00070B505460C460A2000E06D1C00F011F8C1
:1011E00035B128780028F8D102E0641C00F009F835
:1011F00014B120780028F8D1BDE870400A20AFF380
:10120000008008B569468DF800000320ABBE08BD1C
:101210005FEA400C08BF91F0000F4FEA8C234FEAC1
:10122000C12243EA51514FEA1C5018BF00F5F0406B
:101230004FEA300018BF41F000415FEA6C5C00F0FB
:101240002980BCF1FF3F08BF40F080407047130C7D
:1012500006BF12044FF0100C4FF0000C130E04BF29
:1012600012020CF1080C130F04BF12010CF1040C54
:10127000930F04BF92000CF1020CD30F04BF520075
:101280000CF1010C11464FF00002A0F11F00A0EB81
:101290000C00704711F0004F08BF704731F000415B
:1012A0003FF4D5AF0B0C06BF09044FF0100C4FF004
:1012B000000C0B0E04BF09020CF1080C0B0F04BF4D
:1012C00009010CF1040C8B0F04BF89000CF1020C16
:1012D000CB0F04BF49000CF1010CCCF12003A0EBB3
:1012E0000C0022FA03F302FA0CF241EA030100F1C6
:1012F0000100704720F07F4C80EA030023F07F4715
:10130000ACEB070303F57C5300F0004003F1FF034F
:101310002DE980494FEA154B09B44FEA144325EAF9
:101320000B4E24EA03480FF2042606EB1327490864
:101330003E785FEA320203FB0667C7F5000707FB4A
:1013400006F64FEA54374FEAD64606F1020607FB87
:10135000066CCCF1005C4FEA1C472CEA074C07FBFB
:1013600006F40CFB06F504EB15464FEA961634BF5F
:1013700000204FF000404FEAD13706FB07FC4FEA50
:101380001C4C0CFB0BF7D21B03FB0CF761EB0701AA
:101390000CFB0EF7B0EB074072EB17420CFB08F7A3
:1013A00034BFA2EB0742B2EB074261EB17414FEAB1
:1013B0000C444FEA910706FB07FC4FEA1C4C0CFB60
:1013C0000BF7B0EBC74072EB573203FB0CF734BF9F
:1013D000A2EBC742B2EBC74261EB57310CFB0EF7F1
:1013E000B0EBC70072EB57720CFB08F734BFA2EBEF
:1013F000C702B2EBC70261EB5771039F4FEA8161ED
:1014000041EA921104EBCC044FEAD1374FEA8262F1
:1014100006FB07FC42EA90124FEA80604FEA1C4C40
:101420000CFB0BF7D21B03FB0CF761EB07010CFB6A
:101430000EF7B0EB074072EB17420CFB08F734BF16
:10144000A2EB0742B2EB074261EB17414FEA8C5522
:101450004FEA910704EB9C2406FB07FC4FEA1C4C67
:101460000CFB0BF7B0EBC74072EB573203FB0CF7EA
:1014700034BFA2EBC742B2EBC74261EB57310CFB62
:101480000EF7B0EBC70072EB57720CFB08F734BFD6
:10149000A2EBC702B2EBC70261EB577115EB4C250B
:1014A0004FEA816141EA92114FEA82624FEAD137F5
:1014B00042EA901206FB07FC44F100044FEA806008
:1014C0004FEA1C4C0CFB0BF7D21B03FB0CF761EB38
:1014D00007010CFB0EF7B0EB074072EB17420CFB59
:1014E00008F734BFA2EB0742B2EB074261EB1741AA
:1014F00015EB1C154FEA813141EA92414FEA8232E5
:1015000042EA90424FEA80304FEA0C7644F1000400
:1015100048EA03434EEA0B484FF0000EB2EB080CCA
:1015200071EB030724BF624639464EEB0E0E4FF0B7
:10153000000B0018524149414BEB0B0BB2EB080C6E
:1015400071EB03077BF1000B24BF624639464EEB7B
:101550000E0E4FF0000B0018524149414BEB0B0BA4
:10156000B2EB080C71EB03077BF1000B24BF624662
:1015700039464EEB0E0E51EA020718BF46F001063F
:1015800016EB0E7655F1000254F1000103D5BDE8CB
:101590008901BDE80088BDE88901BDE80048B619A9
:1015A000524141EB0101A3F10103704780807F7E2E
:1015B0007D7C7B7A797877767675747372717170C9
:1015C0006F6E6E6D6C6C6B6A6A696868676666657B
:1015D0006464636362616160605F5F5E5E5D5D5C09
:1015E0005C5B5B5A5A59595858575756565555557A
:1015F0005454535352525251515050504F4F4F4EDA
:101600004E4D4D4D4C4C4C4B4B4B4A4A4A49494927
:101610004848484747474746464645454544444469
:10162000444343434342424242414141002B26D47A
:10163000770021D01CB54FEA370703B44FF01000F4
:101640004FF010014FF000000FBCBDE810400BF14F
:10165000010BBBF1010F08BF5FEA170722BF12F1B0
:10166000010211F101014FF0004143F1000300F0CC
:10167000004043EA00007047F9D35708DAE746EA2A
:10168000064613F1400F4FEA16461FDD13F1200FF7
:10169000DFBF16430A46002120335B42C8D0C3F1A6
:1016A000200746EA064602FA07F74FEA164646EAD8
:1016B0000706C3F1200722FA03F201FA07F721FA1D
:1016C00003F14FF0000342EA0702B1E746EA0206DF
:1016D00046EA06464FEA164646EA0106BCBF46EA17
:1016E0000646360C4FF000034FF000024FF00001A9
:1016F0009EE72DE9C048934630B491E8380007C80A
:1017000031EA400C48BF34EA430C03D5FFF7F2FD41
:10171000FFF78CFFF0BCBDE800882DE9C048934678
:1017200030B491E8380007C810F0804F08BF13F0BC
:10173000804F03D100F005F8FFF778FFF0BCBDE85B
:10174000008820F07F4780EA030023F07F4C07EBFE
:101750000C03A3F57C5300F00040A3F1FE0392F0CC
:10176000000F00F0B38095F0000F00F077802DE9B6
:1017700001494FEA11404FEA144621EA004800FBB4
:1017800006FC24EA064708FB06F607FB08F800FB00
:1017900007F718EB06484CEB164C4FEA124B18EBC8
:1017A00007484FEA15464CEB174022EA0B4E0BFB5D
:1017B00006FC25EA06470EFB06F607FB0EFE0BFBB2
:1017C00007F71EEB064E4CEB164C4FF000061EEBD7
:1017D000074E4CEB174B18EB0B0840F1000018EBD1
:1017E0000E0B58EB000840F100008F1A4FF000017B
:1017F0003CBFC943661B14BFB5EB040C00213CBFC2
:10180000C943F61B4FEA17444EEA8E0E27EA0445F9
:101810004FEA1C4704FB07622CEA074C05FB07F75D
:101820000CFB05F604FB0CFC16EB074642EB1742DB
:1018300016EB0C4642EB1C421BEB060658EB020271
:10184000414146EA9E0601D5BDE80189B6195241DB
:1018500041EB0101A3F10103BDE801894FEA144501
:101860004FEA114724EA054621EA074C05FB07F435
:1018700006FB07F70CFB06F105FB0CFC11EB07411F
:1018800044EB17444FEA124711EB0C4144EB1C4464
:1018900022EA074C05FB07F206FB07F70CFB06F6EE
:1018A00005FB0CFC16EB074642EB174216EB0C4609
:1018B00042EB1C456A1854F1000148BF7047B61945
:1018C000524141EB0101A3F10103704795F0000F74
:1018D00037D04FEA11424FEA144721EA024624EA80
:1018E000074C02FB07F106FB07F70CFB06F402FBB3
:1018F0000CFC14EB074441EB17414FEA154714EB7E
:101900000C4441EB1C4125EA074C02FB07F506FBA2
:1019100007F70CFB06F602FB0CFC16EB074645EB43
:10192000174516EB0C4645EB1C42121951F100010C
:1019300048BF7047B619524141EB0101A3F10103C1
:1019400070474FEA14454FEA114724EA054621EA59
:10195000074C05FB07F106FB07F70CFB06F24FF0FF
:10196000000605FB0CFC12EB074241EB174112EBA2
:101970000C4251EB1C4148BF7047921841EB0101EA
:10198000A3F10103704770B5044600688168C9433C
:10199000C90716D1816821F00101816001F0F4F9D5
:1019A000054609E001F0F0F9401B022804D920683F
:1019B0008068C043C00706D020688068C043C00765
:1019C000F0D0002070BDA06A40F01000A062E06A74
:1019D00040F00100E062012070BD0000F8B5002673
:1019E0000446009600688168C943C9072CD0816805
:1019F00041F001018160154815490068B0FBF1F024
:101A000000E0401E00900028FBD101F0BDF9054622
:101A100015E001F0B9F9401B022810D92068806850
:101A2000C043C0070BD0A06A40F01000A062E06A7B
:101A300040F00100E06284F824600120F8BD2068D5
:101A40008068C043C007E4D10020F8BD5C000020DE
:101A500040420F003EB500900120CDE901016946EA
:101A60000F4800F0CBFD08B100F04AFD0C4800F033
:101A70009FFF08B100F044FD0A21094800F0FAFE7A
:101A800020B1074800F0F4FF00F03AFD044800F0F0
:101A900033FE84B2024800F0EBFF20463EBD00005A
:101AA00080000020F8B54A4801F068FF03F0DFFC31
:101AB00000F012FC474800F035FD00F0E9FA00F0B4
:101AC00079FA00F033FC444D01246C7103F0DEFB25
:101AD0000021102341A20846009403F078FE03F091
:101AE00041FD4FF4FA76304601F04CF803F0CEFB9E
:101AF000002110233DA20846009403F068FE03F085
:101B000031FD02E0304601F03DF83CA13CA000F080
:101B10009FFC0028F6D1102345A21946009403F03B
:101B200056FE03F01FFD304601F02CF8102344A2AE
:101B300020210020009403F04AFE03F013FD06E08C
:101B400043A12FA000F084FC304601F01BF804F004
:101B500029FE0028F4D103F099FB002110233EA2B6
:101B60000846009403F033FE03F0FCFC04F0DAFDB9
:101B700010233BA219460020009403F028FE03F036
:101B8000F1FC4FF4FA66304600F0FCFF00F0F2FA88
:101B900011491B31481E00F04CFB304600F0F2FFAB
:101BA0000D491B31481E00F044FB102330A22021B8
:101BB0000020009403F00BFE03F0D4FC701000F042
:101BC000E1FF2C700020E870BDE8F84003F05EBB38
:101BD0000401002080000020000000204553503800
:101BE00032363620496E6974204F4B00436F6E6E5B
:101BF000656374204D515454730000004F4B000036
:101C000041542B43495053544152543D2254435064
:101C1000222C226D717474732E6865636C6F756409
:101C2000732E636F6D222C313838330D0A0000009B
:101C3000436F6E6E656374205375636365737300E1
:101C4000446576696365206C6F67696E000000000B
:101C5000434F4E4E454354004C696E6B204F4B0032
:101C6000537562736372696265204F4B0000000018
:101C700053797374656D20496E6974204F4B000071
:101C80002DE9F041314CE07B01285DD03049A06C5A
:101C900007F034FF4FF07C5107F0D2FD07F0FAFE59
:101CA00083B2A07EB4F92210884201DD012000E059
:101CB00000206072218EA28C914201D9012600E0A1
:101CC0000026E672E17EE279914201D2012200E033
:101CD0000022A272E18D257AA94201D2012100E001
:101CE00000216173258DAB4202D3658DAB4201D9D2
:101CF000012300E00023A373A58DE78CBD4201D929
:101D0000012700E000272773257C25B100253043FB
:101D100006D0012605E051EA0305F8D00125F6E7D3
:101D2000002612B14FF0010C01E04FF0000C1943F6
:101D300000D0012110433843284300D001202675EC
:101D400084F815C0A175E074BDE8F08100000020A2
:101D50000000C8422DE9F0478A4600210F460C4694
:101D60006FF02B0CDFF81491089E36E0002501E09F
:101D7000491C6D1CB14204D213F80180B8F1200F48
:101D8000F6D0B1422BD0A6EB0108B8F1020F04D374
:101D900013F80180B8F10D0F02D013F8018003E0B1
:101DA00003EB010898F80180B8F10A0F14D05DB96F
:101DB0005D5C3D2D0BD07F2D06D819F805507F2D89
:101DC00002D0402D07D234B16046BDE8F087641CD4
:101DD000022CF9D8F1E77F1C491CB142C6D3A7B148
:101DE000FD0805EB45056E0007F0070505EB450509
:101DF000072707EB450506EBD5052C1B08B1A245C7
:101E000005D26FF029001460DFE7002033E00326DD
:101E10000025AC4604462BE01F780D2F26D00A2F54
:101E200024D0202F22D019F80770402F0CD04FF06B
:101E3000000865F39F170CF1010CA6EB08063D4660
:101E4000BCF1040F03D011E04FF00108F1E74FF0AF
:101E5000000C5EB12F0C04F8017B012E06D92F0A6D
:101E600004F8017B022E01D904F8015B491E5B1CBA
:101E70000029D1D1201A10600020A6E711C2000865
:101E80002DE9F04F0024099D8146A34695B1032713
:101E9000B5FBF7F0B5FBF7F607FB105000B10120DA
:101EA00006446FF02900B6F1804F06D3811111600E
:101EB000BDE8F08FC2F800B066E0B600761CB14213
:101EC0000AD35FEA090107D0B5FBF7F000EB400A3F
:101ED0000846DFF8BCC026E01660E9E713F8016B9E
:101EE00013F8017B4FEA9608360106EB271613F824
:101EF000011B1CF8088006F03F0600F8018B1CF857
:101F0000066000F8016BBE0006EBA11606F03F0666
:101F100001F03F011CF8066000F8026B1CF801108C
:101F200000F8011CE41C5445D8D3AC4227D213F866
:101F3000016B3D21641CAC4201D21B7801E04FF0E3
:101F400000034FEA96041CF8044000F8014B4FEAE6
:101F5000061404EB231404F03F041CF8044000F8BA
:101F6000014B08D24FF03C0404EA83031CF8033011
:101F700000F8013B01E000F8011B00F8011BA0EB99
:101F80000901116080F800B04FF0000090E70000F8
:101F9000D1C1000810B5044602464FF40041034881
:101FA00000F0EDFE0248047010BD0000000C01407E
:101FB0006E0000207CB503F069F901250021102393
:101FC00017A20846009503F002FC12236E221B2183
:101FD0000A20009503F021FA03F0C4FA0024102629
:101FE00012236E221B210A20009403F0C7F9CDE9C9
:101FF0000065302103232246084603F0B1FB10237D
:10200000252230214820009503F0DEFA03F0AAFAD9
:10201000052000F0B7FDA41CE4B2642CE0D97CBD1F
:1020200053544152542E2E2E00000000FEE70000B3
:1020300005490A78002A06D000220A70C91CB1F8A6
:10204000011049BA01807047610000200F4B10B5A4
:102050009A780AB92C2818D10C49C91C8854521CEA
:10206000D0B29870062810D308784A78CC781044FB
:102070008A78224410440A7949791044C0B28142D6
:1020800001D1012018700020987010BD610000205F
:1020900004480021017081700122411C024801F0B6
:1020A000F7BF0000610000209401002070B50024FB
:1020B000204600F073F8134D04E0641CE4B20120E4
:1020C00000F03CF88021284600F054FE012803D09F
:1020D000642C10D2002407E0642CEED30BE0641CC7
:1020E000E4B2012000F02AF88021284600F042FEE8
:1020F00018B1642C04D3012070BD642CEFD3FAE72F
:10210000002070BD000C01400949087800280DD15D
:102110000848026842F0807202600748002242606C
:10212000026842F00102026001200870704700005E
:1021300060000020FCED00E0001000E010B5044657
:102140000848007808B9FFF7DFFF07494B680748E0
:10215000074A0068B0FBF2F262434868C01A904236
:10216000FBD310BD60000020001000E05C000020E8
:1021700040420F0010B5FFF7C7FF012000F00EF836
:1021800001228021044800F0FAFD00F07BF8BDE850
:102190001040FFF78BBF0000000C01401FB58021ED
:1021A000009103210391012100B11120CDE901012A
:1021B0006946024800F0F8FC1FBD0000000C014019
:1021C00070B50024134D04E0641CE4B20120FFF755
:1021D000B5FF8021284600F0CDFD012801D1642CF7
:1021E000F2D3002404E0641CE4B20120FFF7A6FF50
:1021F0008021284600F0BEFD08B9642CF3D32820C6
:10220000FFF79CFF8021284600F0B4FD012800D094
:10221000002070BD000C014070B50020044640064F
:10222000050EFFF7CDFF641C2843E4B2082CF6D35B
:1022300070BD2DE9FC410E46074600F023F8FFF77C
:1022400035FF10B10120BDE8FC8100246D46FFF789
:10225000E3FF2855641CE4B2052CF8D39DF8000078
:102260009DF801109DF8033042189DF802100B44B0
:102270001A449DF804309A4201D130703970002020
:10228000E1E7000010B50120FFF788FF094C0022AC
:102290008021204600F073FD142000F073FC012221
:1022A0008021204600F06BFDBDE810400D20FFF7B7
:1022B00045BF0000000C01407047000010B54FF40E
:1022C00000710348FEF76FFA02490020088010BD34
:1022D0005C0600207C0000204FF400720149024897
:1022E00001F0C1BC5C0600204C01002010B5044682
:1022F00000F0FAF858B90AA10B48FEF731F930B1ED
:102300003A21FEF711F9002800D0401C10BD05202D
:1023100000F038FC2046641EA4B2E9D210BD0000D3
:102320004950442C000000005C06002038B5FFF73F
:10233000C5FF02F0ABFF01240021102324A20846B0
:10234000009403F044FA03F00DF94FF4FA7502E03B
:10235000284600F017FC20A120A000F079F8002802
:10236000F6D110231FA21946009403F030FA03F0AF
:10237000F9F802E0284600F005FC17A11CA000F0C7
:1023800067F80028F6D110231DA22021009403F045
:102390001EFA03F0E7F802E0284600F0F3FB0EA176
:1023A0001BA000F055F80028F6D110231CA2302104
:1023B000009403F00CFA03F0D5F802E0284600F090
:1023C000E1FB1AA11BA000F043F80028F6D138BDAC
:1023D000312E41542E2E2E004F4B000041540D0A39
:1023E00000000000322E43574D4F44452E2E2E0044
:1023F00041542B43574D4F44453D310D0A000000D9
:10240000332E41542B4357444843502E2E2E000068
:1024100041542B4357444843503D312C310D0A0061
:10242000342E43574A41502E2E2E0000474F542041
:102430004950000041542B43574A41503D22596CAA
:1024400079222C223131323031313230220D0A00E2
:1024500070B50D460646C824FEF7B8F882B24FF4B0
:10246000FA7331460B4801F035FE0EE000F03CF8FF
:1024700040B929460848FEF773F818B1FFF71EFF68
:10248000002070BD0A2000F07DFB641EE4B2EDD296
:10249000012070BD4C0100205C06002030B589B0E1
:1024A0000C460546FFF70AFF224609A16846FDF7DC
:1024B0000BFF0BA16846FFF7CBFF002806D14FF4B6
:1024C000FA7322462946074801F004FE09B030BDE0
:1024D00041542B43495053454E443D25640D0A0059
:1024E0003E0000004C01002004480178012901D081
:1024F0000120704700210170084670474C00002001
:1025000072B6FEE710B5044602464FF48051034808
:1025100000F035FC0248047010BD0000000C0140C2
:102520006B000020F8B500260446009690F82400C1
:1025300001280BD0012084F824002046FFF723FA5D
:102540002046FFF74BFA070002D050E00220F8BD0A
:10255000A06A20F4885040F00200A062022000F03F
:1025600043FE25490968B1FBF0F0400000E0401E41
:1025700000900028FBD12068816841F0080181604B
:1025800000F002FC054608E000F0FEFB401B0A28B4
:1025900003D920688068000715D420688068000788
:1025A000F2D42068816841F00401816000F0ECFB06
:1025B000054612E000F0E8FB401B0A280DD9206810
:1025C0008068400709D5A06A20F0020040F01000A2
:1025D000A06284F824600120F8BD2068806840076C
:1025E000E8D4A06A20F0020040F00100A06284F864
:1025F00024603846F8BD00005C000020F8B50023D8
:10260000009390F824201C46012A12D0012280F861
:1026100024204A681F26072A0DD205686F6B521EB8
:1026200002EB82029640B7430E68964037436F63D1
:1026300019E00220F8BD05680D2A0AD22F6BD21FBF
:1026400002EB82029640B7430E68964037432F63F1
:1026500009E0EF6A0D3A02EB82029640B7430E683A
:1026600096403743EF620A68072605680A2A0AD3AC
:10267000EF680A3A02EB42029640B7438E689640F2
:102680003743EF6008E02F6902EB42029640B74300
:102690008E68964037432F610A68102A01D0112AAC
:1026A00020D1124D0268AA4217D195682D0219D483
:1026B000956845F4000595600968102912D10C4908
:1026C0000C4A0968B1FBF2F101EB8101490000E01D
:1026D000491E00910029FBD104E0816A41F02001EC
:1026E0008162012380F824401846F8BD002401408F
:1026F0005C00002040420F000068C06C7047000082
:102700002DE9F0414FF00006040035467ED0A06A66
:10271000002728B9E76284F82470204600F07EF88C
:102720002046FFF730F9A16A01F01001014304D0FF
:10273000A06A40F01000A06268E0A16A21F488510C
:1027400041F00201A1626268E169237B0A4346EA23
:1027500043010A43A1684FF48076B14208D00129B1
:1027600006D0002194F814C0BCF1010F02D00AE099
:102770003146F7E7F3B1A36A43F02003A362E36AAB
:1027800043F00103E3622368D3F804C02CF4694CDE
:102790004CEA010CC3F804C021688B68DFF870C0F4
:1027A00003EA0C0313438B60A168B1420BD00129EB
:1027B00009D00CE0DFF85CC0A3690CEB43330B439A
:1027C00043F40061DFE7218A0D05A5F58015216836
:1027D000CB6A23F470032B43CB62216889680E4BCC
:1027E0001940914208D1E762A16A21F0020141F04B
:1027F0000101A162BDE8F081A06A20F0020040F072
:102800001000A062E06A40F00100E0620120F1E700
:10281000FDF7E1FF00E0FFFFFE0E1FFF00B585B0F2
:102820000021009101910291039100680E498842B4
:1028300018D10E48816941F400718161816901F408
:1028400000710491816941F00401816180696946E8
:1028500000F004000490162000900320019004482A
:1028600000F0A2F905B000BD0024014000100240B4
:10287000000801402DE9F8434FF000080D460446DA
:10288000CDF8008000F080FA074620688168C9050D
:1028900008D5A06A40F02000A06284F824800120BE
:1028A000BDE8F8834168C90503D4C06A10F4700F0D
:1028B00029D0022000F098FC3A490968B1FBF0F6F3
:1028C00020680169384A11424FEA62024FEAA213B6
:1028D0001ED1C1684FEA621C11EA0C0F18D10169C0
:1028E000114224D1C068184221D1142022E0681C72
:1028F00009D025B100F048FAC01BA84203D92068CE
:102900000068800724D5206800688007EFD52CE098
:102910000169114202D1C168194206D002692349F6
:102920000A4206D1C068084203D1542002E029209F
:1029300000E0FC204643009815E0681C10D025B14B
:1029400000F022FAC01BA8420AD90098B04207D270
:10295000A06A40F00400A06284F8248003209FE76E
:102960000098401C0090B042E7D321686FF012003D
:102970000860A06A40F40070A06220688068C0F31C
:10298000424007280CD1207B50B9A06A20F4807007
:10299000A062A06AC00403D4A06A40F00100A06253
:1029A00000207DE75C000020244992244992240005
:1029B00070B5044690F8240001280DD0012084F859
:1029C00024002046FFF70AF801004FF0000205D06E
:1029D00084F82420084670BD022070BDA06A40F231
:1029E0000123984340F48070A0621F4D20681F4B64
:1029F000A84218D11E6816F4702F14D0A66A46F4A7
:102A00008016A6621E68760505D5A66A26F40056CD
:102A100046F48056A662A66AF6040AD5E66A26F04F
:102A20000606E66206E0A66A26F48016A6624668F6
:102A3000E9E7E26284F824206FF002020260206875
:102A40008268C2F34242072A05D1A84208D11A6817
:102A500012F4702F04D0826842F480128260B9E7C9
:102A6000826842F4A002F9E70028014004240140F2
:102A700010B5044690F82400012807D0012084F8FE
:102A800024002046FEF77FFF10B107E0022010BDB2
:102A9000A16A21F4885141F00101A162002184F86A
:102AA000241010BD10B590F821100022022905D085
:102AB0000421816380F82020012010BD01680B688B
:102AC00023F00E030B6001680B6823F001030B6019
:102AD00090F84030012404FA03F1C36B596080F888
:102AE000214080F82020104610BD000010B590F85D
:102AF00021100024022903D00421816301243DE038
:102B000001680A6822F00E020A6001680A6822F071
:102B100001020A601A4A0168914201D1012121E0B3
:102B2000174A1432914201D110211BE0144A283275
:102B3000914201D1891515E0114A3C32914201D1EF
:102B400089140FE00E4A5032914202D14FF4803185
:102B500008E00B4A6432914202D14FF4801101E047
:102B60004FF08071064A083A5160012180F8211027
:102B7000002180F82010416B01B18847204610BD2C
:102B80000800024070B5044600F0FEF80546601CDF
:102B900002D004480078044400F0F6F8401BA0423C
:102BA000FAD370BD500000202DE9F84FDFF8A49152
:102BB0000024A9F1040B23464FF00F0809F1040A81
:102BC000ABF1040EBEE00127A7403A40BA4272D1F1
:102BD000DFF884C14D68A5EB0C0665452BD00DDCF4
:102BE000032D34D005DC35B3012D19D0022D2FD1A2
:102BF0001BE0112D16D0122D2AD119E0B6F5881F31
:102C000019D006DCB6F5803F15D0B6F5801F1FD170
:102C100011E0B6F5001F0ED0B6F5041F18D10AE07A
:102C2000CB6815E0CB681B1D12E0CB6808330FE0C2
:102C3000CB680C330CE08B682BB1012B4FF00803F1
:102C400003D0476104E0042302E0076100E00023B1
:102C5000FF2A01D8064601E000F104064FEA840588
:102C600001D9A5F12005376808FA05FC27EA0C0709
:102C700003FA05F547EA050737604D68ED0060D5B2
:102C8000364DAE6946F00106AE61AD6924F003062B
:102C900005F001050095324D7719BE68A5072D0F87
:102CA00008FA05FC26EA0C06DFF8B8C0604503D137
:102CB0004FF0000C17E044E0DFF8ACC0604502D1F3
:102CC0004FF0010C0FE0DFF8A4C0604502D14FF0D7
:102CD000020C08E0DFF898C0604502D14FF0030C09
:102CE00001E04FF0040C0CFA05FC4CEA060CC7F8A6
:102CF00008C04D68D9F80060ED024D4601D5164375
:102D000000E096432E604D68DAF80060AD0255464B
:102D100001D5164300E096432E604D68DBF8006055
:102D2000AD035D4601D5164300E096432E604D6825
:102D3000DEF80060ED03754601D5164300E09643CA
:102D40002E60641C0A6832FA04F57FF43CAFBDE8DB
:102D5000F88F00000804014000001110001002402C
:102D60000000014000080140000C0140001001403B
:102D7000001401408068084000D0012070470AB16B
:102D8000016170470904FBE7014880687047000053
:102D90005000002070B5040025D094F83D000025B7
:102DA00020B984F83C50204600F04EF9242084F8E5
:102DB0003D002068016821F0010101602068016880
:102DC00041F4004101602068016821F40041016084
:102DD00000F06CFB4D4B6168994201D84C4900E012
:102DE0004C49884201D2012070BD4B492268B0FB9A
:102DF000F1F1566826F03F060E43566062689A422B
:102E000006D94FF4967251434FF47A72B1FBF2F146
:102E10002268491C166A26F03F0631431162616838
:102E2000994210D84900401EB0FBF1F2521CC2F387
:102E30000B02042A01D2042022E0B0FBF1F0401C76
:102E4000C0F30B001CE0A268F2B301EBC10303EB7B
:102E50000116431EB3FBF6F35B1C43F480431B05D2
:102E600049D092B301EBC10202EB0111401EB0FB4D
:102E7000F1F0401CC0F30B0040F4804040F40040EF
:102E80002168CA694CF6FF739A431043C861D4E9BC
:102E9000071001432068026822F0C002114301605C
:102EA000D4E9030101432068826848F2FF339A4362
:102EB00011438160D4E9051001432068C26822F003
:102EC000FF021143C16001E00EE016E020680168D6
:102ED00041F0010101602564202084F83D00256354
:102EE00084F83E50002070BD01EB4106431EB3FB49
:102EF000F6F35B1CB3E70120C2E701EB4101401E82
:102F0000B0FBF1F0401CC0F30B00B7E7A086010056
:102F100080841E0000093D0040420F002DE9F84F5B
:102F20001F4690468A460446DDF82890FFF72CFF9E
:102F3000054694F83D0020287FD1192301224049FD
:102F40002046009501F0A9F9002876D194F83C00BC
:102F5000012872D0012084F83C0020680168C9076C
:102F600003D1016841F0010101602068016821F48A
:102F700000610160212084F83D00102084F83E00AB
:102F800000262664C4F824806785608D20852D483E
:102F9000E0622B464A465146204601F005F990B9B9
:102FA000206841698069009036E02A4649462046FB
:102FB00001F014FA50B1206C042804D12068016893
:102FC00041F4007101600120BDE8F88F606A21685A
:102FD00000780861626A521C6262608D401E6085E2
:102FE000208D401E80B2208521684B69DB435B0742
:102FF0000BD450B110780861606A401C6062608D2B
:10300000401E6085208D401E20852A464946204668
:1030100001F018F90028CED1208D0028C5D154F830
:103020003D0B016841F400710160202004F81E0985
:10303000E67766770020C7E7FFE70220C4E70000D5
:10304000020010000000FFFF10B586B000210091C3
:1030500001910291039100681349884222D1134CD7
:10306000A06940F00800A061A069694600F008006E
:1030700004904FF4407000901220019003200390C0
:103080000B48FFF791FD0B49486840F0E06040F0C5
:1030900002004860E06940F40010E061E06900F47B
:1030A0000010049006B010BD005400400010024013
:1030B000000C014000000140024881680278114480
:1030C0008160704750000020074810B5016841F04A
:1030D00010010160032000F075F8002000F006F8F0
:1030E00000F024F8002010BD0020024070B50D4D06
:1030F00004464FF47A712878B1FBF0F00A49096868
:10310000B1FBF0F000F0A4FB48B9102C07D200226C
:103110002146501E00F036F800206C6070BD012082
:1031200070BD0000500000205C0000200C4808B575
:10313000816941F001018161816901F00101009122
:10314000C16941F08051C161C069064900F08050F9
:103150000090486820F0E06040F00070486008BDD2
:103160000010024000000140002809DB00F01F02AF
:10317000012191404009800000F1E020C0F80011D9
:1031800070470000F0B40E4B1B68C3F30223C3F179
:103190000704042C00D904241D1D072D01D200238F
:1031A00000E0DB1E012606FA04F56D1E0D409D4071
:1031B0009E40761E164045EA0601F0BC04F07DBA3A
:1031C0000CED00E0064A00F0070110684FF6FF031F
:1031D000184040EA0120034908431060704700008E
:1031E0000CED00E00000FA0510B501460020234C6C
:1031F000012922D0022939D010291DD16168226805
:10320000D20119D51E48C1F38342C903805C0AD597
:1032100061681B4AC1F34041921E515C194AB2FBDE
:10322000F1F1484301E0184948436168490203D479
:1032300040000321B0FBF1F010BD226AC2F301216E
:10324000012903D1920701D5C80310BD022905D178
:10325000626A920702D549F6404010BD0329FCD1AD
:1032600021688903F9D54FF2244010BD00F02EF9F2
:103270006168C1F38131491C4900DBE7001002405D
:10328000D29E000800127A0000093D002DE9F843A3
:1032900004460078344FC00752D0F8690025C000BA
:1032A00008D4F86940F08050F861F869012500F011
:1032B000805000902D480168C90511D401688046EE
:1032C00041F480710160FFF75FFD064604E0FFF7FF
:1032D0005BFD801B642822D8D8F80000C005F6D515
:1032E000386A10F4407020D0A18801F44071814206
:1032F0001BD0386A1E49012220F440700A60002267
:103300000A603862C00710D0FFF73EFD064641F262
:10331000883807E0FFF738FD811B414502D90320BB
:10332000BDE8F883386A8007F4D5386A616820F40C
:103330004070084338621DB1F86920F08050F86190
:103340002078800705D57868A16820F440400843BC
:1033500078602078C00605D57868E16820F48000A0
:10336000084378600020DBE7001002400070004056
:10337000400442422DE9F0470D46040067D0DFF8D3
:103380001881D8F8000000F00700A8420CD2D8F845
:10339000001021F007012943C8F80010D8F80000F8
:1033A00000F00700A84252D120683C4E810712D598
:1033B000400703D5706840F4E06070602078000733
:1033C00003D5706840F4605070607068A16820F0A8
:1033D000F000084370602078C00727D0606801289B
:1033E00010D03168022810D0890700292FDA7168BF
:1033F00021F0030101437160FFF7C6FC074641F26B
:1034000088390CE031688903EFE78901EDE7FFF7C0
:10341000BBFCC11B494502D90320BDE8F087706899
:10342000616800F00C00B0EB810FF0D1D8F800100B
:10343000404601F00701A9420BD9016821F00701BC
:1034400029430160006800F00700A84201D0012074
:10345000E3E72078400705D57068E16820F4E06074
:10346000084370602078000706D57068216920F451
:10347000605040EAC100706000F038F87168084A96
:10348000C1F30311515CC840064908600648006852
:10349000FFF72CFE0020C0E7002002400010024091
:1034A000E29E00085C00002054000020044805490A
:1034B00000684968044AC1F30221515CC840704762
:1034C0005C00002000100240F29E000804480549FC
:1034D00000684968044AC1F3C221515CC840704782
:1034E0005C00002000100240F29E00080E4B59685C
:1034F0000E4801F00C02042A11D0082A0FD10C4802
:10350000C1F38342C903805C0AD55968084AC1F3F4
:103510004041921E515C054A5043B0FBF1F07047A8
:1035200004494843704700000010024000127A002E
:10353000C09E000800093D002DE9F84F04006FD03F
:103540002078BE4DC00747D06868C0F381000128CD
:1035500007D06868C0F38100022809D16868C003F9
:1035600006D52868800337D560680028E7D033E0A7
:103570006068B0F5803F0BD010B1B0F5A02F11D02E
:10358000286820F480302860286820F4802002E039
:10359000286840F480302860606888B1FFF7F4FB49
:1035A000064609E0286840F480202860F0E7FFF72D
:1035B000EBFB801B642873D828688003F7D50BE0E9
:1035C000FFF7E2FB064604E0FFF7DEFB801B642802
:1035D000F1D828688003F7D42078DFF86482800768
:1035E0004FF0010A4FF0000939D5686810F00C0F50
:1035F00007D06868C0F38100022809D16868C00359
:1036000006D42868800714D52069012808D110E065
:103610002069B0B1C8F800A0FFF7B6FB064605E088
:1036200007E1FFF7B1FB801B0228C4D82868800798
:10363000F7D52868616920F0F80040EAC1002860E9
:103640000DE0C8F80090FFF79FFB064604E0FFF787
:103650009BFB801B022823D828688007F7D420789A
:1036600000072CD57748A169D9B1C0F800A0FFF7B1
:103670008BFB064604E0FFF787FB801B02280FD870
:10368000686A8007F7D570484FF4FA510068B0FBBC
:10369000F1F0009000BF0098411E0091FAD20EE0B8
:1036A0007CE0C0F80090FFF76FFB064604E0FFF7F0
:1036B0006BFB801B022871D8686A8007F7D42078DA
:1036C00040075BD5E8690027C00008D4E86940F0EE
:1036D0008050E861E869012700F0805000905B4865
:1036E0000168C90511D40168834641F48071016005
:1036F000FFF74AFB064604E0FFF746FB801B642801
:103700004CD8DBF80000C005F6D5E06801280AD0E7
:1037100008B1052813D0286A20F001002862286A21
:1037200020F0040002E0286A40F001002862E0680E
:1037300041F2883B88B1FFF727FB064609E0286A7B
:1037400040F004002862EEE7FFF71EFB811B59459D
:103750005BD8286A8007F7D50BE0FFF715FB064614
:1037600004E0FFF711FB811B59454ED8286A8007FA
:10377000F7D41FB1E86920F08050E861E069A8B390
:103780006968C1F38101022946D00228484606D063
:10379000C8F86000FFF7F8FA044639E035E047461C
:1037A000C8F86000FFF7F0FA064604E0FFF7ECFA0D
:1037B000801B022829D828688001F7D4206AB0F538
:1037C000803F05D16868A16820F400300843686034
:1037D000D4E908010843696821F47411084368605A
:1037E000C7F860A0FFF7D0FA044605E023E0FFF732
:1037F000CBFA001B022808D828688001F7D51AE008
:10380000FFF7C2FA001B022802D90320BDE8F88F97
:1038100028688001F4D40EE00128F7D06868226A95
:1038200000F48031914204D1616A00F47010884242
:1038300001D00120EAE70020E8E700000010024084
:1038400000004242800442425C00002000700040C0
:1038500010B5401EB0F1807F01D3012010BD4FF0A4
:10386000E02460610F21601703F027FF0020A061B2
:1038700007202061002010BD7047704770B590F898
:103880003C20012A26D0012580F83C50022280F8F5
:103890003D2002685368946823F070060B68334338
:1038A00053600D4B02689A4208D0B2F1804F05D0A8
:1038B0000A4B9A4202D00A4B9A4204D1496824F03A
:1038C00080031943916080F83D50002180F83C103E
:1038D000084670BD022070BD002C0140000400406D
:1038E0000008004010B5040003D094F83D0010B16A
:1038F00007E0012010BD002084F83C00204600F0C5
:103900001FF8022084F83D00211D206803F002FD0D
:10391000012084F8460084F83E0084F83F0084F8D3
:10392000400084F8410084F8420084F8430084F8A1
:10393000440084F8450084F83D00002010BD0000DC
:1039400008B500680B49884212D10B48C16941F0A3
:103950000401C161C069002200F0040000900D2143
:103960001E20FFF70FFCBDE808401E20FFF7FCBB40
:1039700008BD0000000800400010024090F83D1013
:10398000012901D001207047022180F83D10016813
:10399000CA6842F00102CA6000680B49884208D038
:1039A000B0F1804F05D00949884202D008498842C9
:1039B00004D1816801F00701062903D0016841F0B4
:1039C0000101016000207047002C0140000400400C
:1039D0000008004070B5044690F83C00002501281E
:1039E00017D0012684F83C60022084F83D0020684E
:1039F000826822F0770222F47F42826008685028B1
:103A000038D00DDC20284FD005DC90B3102811D120
:103A10004AE0022070BD302846D040280AD13BE061
:103A200060282FD070280DD0B0F5805F03D0B0F59E
:103A3000005F12D0012584F83D60002084F83C002E
:103A4000284670BDCB68D1E90121206803F09EFCB7
:103A50002068816841F0770109E0CB68D1E9012154
:103A6000206803F093FC2068816841F48041816004
:103A7000E1E719E0CA684968206803F099FC502121
:103A8000206806E0CA684968206803F0A2FC60214B
:103A9000206803F085FCCEE7CA684968206803F017
:103AA00087FC40212068F4E7226801461046F0E7D1
:103AB00070472DE9F04104460068C66805694FF07B
:103AC0000007A90713D5B10711D5F91E016101201F
:103AD0002077206880698007204602D0FFF7E8FF42
:103AE00004E000F07EF8204600F07CF827776807B5
:103AF00016D5700714D521686FF004000861022004
:103B000020772068806910F4407F204602D0FFF7BC
:103B1000CFFF04E000F065F8204600F063F8277757
:103B2000280715D5300713D521686FF00800086104
:103B3000042020772068C0698007204602D0FFF764
:103B4000B7FF04E000F04DF8204600F04BF827776F
:103B5000E80616D5F00614D521686FF0100008614C
:103B6000082020772068C06910F4407F204602D0EA
:103B7000FFF79EFF04E000F034F8204600F032F832
:103B80002777E80708D0F00706D021686FF001001A
:103B90000861204600F028F8280608D5300606D52A
:103BA00021686FF0800008612046FFF765FE680617
:103BB00008D5700606D521686FF0400008612046E0
:103BC00000F050F8A8060AD5B00608D521686FF0B5
:103BD000200008612046BDE8F041FFF74EBEBDE879
:103BE000F08170477047000010B501681B488142A2
:103BF00032D11B4C94F8200020B194F82000401ED4
:103C000084F82000608E10B1608E401E6086606B6C
:103C1000401C6063B0F5FA6F03D10020606301209F
:103C2000A071A07C00B1012000F0CCFDE07C00B1CF
:103C30000120FEF7AFF9207D00B10120FEF762FC04
:103C4000607D00B1012003F075FAA07D00B1012074
:103C5000BDE8104003F05CBA10BD00000008004051
:103C600000000020704718B5034690F84200202855
:103C700001D0022018BD51B14AB1012018630020C3
:103C80005863184603F0A4FC010002D005E00120AF
:103C900018BD186B012802D00121084618BD18680C
:103CA00002684068009018680C3050E8002F42F01D
:103CB000100240E80024002CF5D1EEE705498842C7
:103CC00007D1054901204202087004490148FFF765
:103CD000CABF70474C0100204C0000205C06002049
:103CE00070470000F8B5016804460868CA684B6967
:103CF00010F00F0F4FF000055AD003F0010602F448
:103D00009077374365D0C10705D0D10503D5616CE5
:103D100041F001016164410705D5D90703D0616C09
:103D200041F002016164810705D5D90703D0616CB8
:103D300041F004016164010707D502F0200131431D
:103D400003D0616C41F008016164616C00293BD0D3
:103D5000800604D5900602D5204603F07BFB206840
:103D60004069616CC0F3801001F0080101432046F6
:103D70002BD003F048FB20684069400621D520681D
:103D8000143050E8001F21F0400140E80012002AE2
:103D9000F5D1E06BA8B16D494163E06BFEF7A6FE7B
:103DA000002811D0E06B416B01B0BDE8F04008473E
:103DB00083060ED593060CD52046BDE8F84003F0E7
:103DC00049BB2046FFF78CFFF8BDFFF789FF65640C
:103DD000F8BD266B2023012E7CD1C6067AD5D606E7
:103DE00078D508684868009048694FF00206400698
:103DF00040D5E16B086840680004000CE8D0A28D53
:103E00008242E5D9E085886920282DD020680C30D1
:103E100050E8001F21F4807140E80012002AF5D11B
:103E20002068143050E8001F21F0010140E8001222
:103E3000002AF5D12068143050E8001F21F040011D
:103E400040E80012002AF5D184F84230256320684A
:103E50000C3050E8001F21F0100140E80012002A49
:103E6000F5D1E06BFEF71EFE6663A08DE18D401A72
:103E700081B22AE0A08DE18D401A81B2E08D002848
:103E8000A6D00029A4D020680C3050E8002F22F4DE
:103E9000907240E80027002FF5D12068143050E8D8
:103EA000002F22F0010240E80027002FF5D184F80E
:103EB0004230256320680C3050E8002F22F01002B9
:103EC00040E80023002BF5D166632046FFF7F6FE9D
:103ED000F8BDFFE705062BD5150629D594F8410056
:103EE0002128F5D1A068B0F5805F01D12069B0B17B
:103EF000206A411C2162216800784860E08C401EE5
:103F00000004000CE084E3D12068C16821F0800146
:103F1000C1602068C16841F04001C160D8E7206AF3
:103F20000088C0F308004860206A801C2062E5E732
:103F30004006CDD55006CBD5CA68204622F04002B7
:103F4000CA6084F8413000F015F9C1E7F773000842
:103F500070B5040004D094F84100002510B106E0CB
:103F6000012070BD84F84050204600F023F8242042
:103F700084F841002068C16821F40051C1602046E6
:103F800003F0CAFA2068016921F4904101612068B8
:103F9000416921F02A0141612068C16841F4005162
:103FA000C1606564202084F8410084F842006563A4
:103FB000002070BD70B586B0002400940194029476
:103FC000039401682E482D4E022203230515B142A9
:103FD00026D1816941F480418161816901F4804188
:103FE0000491816941F0040181618069254E00F0EE
:103FF000040004901002CDE90002694603933046A4
:10400000FEF7D2FDCDE90054694630460294FEF732
:10401000CBFD00220E212520FFF7B4F8252028E053
:10402000194EB14227D1C16941F48021C161C169F2
:1040300001F480210491816941F008018161806966
:10404000CDE9005200F00800CDE903300F4D69467C
:104050002846FEF7A9FDE814CDE900046946284684
:104060000294FEF7A1FD00220F212720FFF78AF816
:104070002720FFF779F806B070BD00000038014036
:10408000001002400008014000480040000C0140C0
:1040900090F84230202B01D00220704721B11AB194
:1040A0000023036303F094BA01207047074910B559
:1040B00088420AD106480078FDF7C8FFBDE81040E5
:1040C000012203490148FFF7E3BF10BD940100201E
:1040D000620000202DE9F843044690F841001F4695
:1040E00015460E46202802D00220BDE8F8838EB186
:1040F00085B100206064212084F84100FEF744FE71
:10410000A5848146E584A0684FF02008B0F5805F63
:1041100002D003E00120E8E7206910B1354600260F
:104120000EE000250CE08021204603F06CFAA0B9D7
:10413000BDB115F8010B21684860E08C401EE08499
:10414000E08C4B464FF0000200970028EBD14FF077
:104150004001204603F057FA40B184F84180032023
:10416000C3E736F8020BC0F30800E4E784F84180A7
:104170000020BAE77047FEE701684A69D24352055A
:104180000FD46FF480624A61002140F8301F202272
:1041900042738173026942F00402026101730120DB
:1041A0007047002070470000F8B50446C06A1E46FC
:1041B0000D461746082807D0012805D010F5803F86
:1041C00002D0206B122804D12068016841F480716C
:1041D0000160134600224FF001112046009600F0C6
:1041E0005CF840B120680068C00502D54FF400704B
:1041F00020640320F8BD2069B0F5804F0ED0062062
:10420000216800EAD51040F0F000086133463A46D4
:104210000B49204600F085F878B902E005F0FE0071
:1042200000E0E8B221680861054933463A46891F33
:10423000204600F076F80028DCD00120F8BD000010
:104240000800010070B516460D4604461EE02046E3
:10425000FFF792FF08B1012070BD681C16D0FEF771
:1042600093FD801BA84200D885B920684069C043EF
:1042700040070BD5002044F8300F20216173A07354
:10428000216941F0200121612073E4E72068406941
:10429000C0434007DBD4002070BD2DE9F0471E4627
:1042A00090460D460446C1F30747DDF8209026E00E
:1042B000701C24D0FEF768FDA0EB0900B04200D8C6
:1042C000EEB92068012F16D0806925EA00000004AD
:1042D000000C12D00020404511D1002044F8300FCE
:1042E00020216173A073216941F0200121612073B5
:1042F0000120BDE8F0874069E7E70120EBE720688F
:10430000012F0AD0806925EA00000004000C06D0C5
:1043100000204045CCD00020EBE74069F3E70120C6
:10432000F7E72DE9F047984616460D4604464FF04C
:1043300000094FF0200AC1F3074723E020684069D5
:10434000C043400515D42068016841F40071016044
:1043500021686FF480604861C4F8309084F83DA013
:1043600084F83E90216C41F00401216484F83C9073
:1043700020E0701C06D0FEF707FDA0EB0800B0425D
:1043800003D816B1012F1ED020E02068012F14D0D1
:10439000806925EA00000004000C17D044F8309F23
:1043A00084F80DA084F80E90216941F0200121616C
:1043B00084F80C900120BDE8F087406925EA0000F0
:1043C0000004000CEAD12068406901E0206880699F
:1043D00025EA00000004000CB0D1ECE770B51646E9
:1043E0000D4604461EE02046FFF7C6FE08B1012038
:1043F00070BD681C16D0FEF7C7FC801BA84200D811
:1044000085B920684069C04300060BD5002044F8F8
:10441000300F20216173A073216941F020012161D7
:104420002073E4E720684069C0430006DBD4002025
:1044300070BD000070B50E4D002420212846FEF707
:1044400099FC00B9012440212846FEF793FC00B9ED
:10445000022480212846FEF78DFC00B903240121A7
:104460000448FEF787FC00B90424204670BD000014
:1044700000080140000C014070B5D14E96F82000B4
:1044800000282BD10A2086F82000FFF7D3FF3077D1
:10449000B27F4FF42F7420EA0201424071778243C9
:1044A000F277B07702200422012908D000250229E2
:1044B0004ED0012403297BD004297AD143E13178FD
:1044C000012904D002290AD0032913D034E0F1785D
:1044D000491EC9B2F170F02900D9F07070BD707832
:1044E000002806D1F078401EC0B2F070F02800D944
:1044F000F27047E1B07850B1717C0029EED0082805
:1045000011D2DFE800F01010100D10101011F0782B
:10451000401EC0B2F070F02801D90620F0703FE1D3
:104520004FF4967400E0002402F0DEFEB16B081A2E
:10453000B063A04200DAB4633078042839D1F0784F
:10454000401EC0B2F070F02801D90B20F070C8E016
:104550003078012804D002280AD0032813D03FE085
:10456000F078401CC0B2F0700328B7D1F57070BD70
:1045700070780028BDD1F078401CC0B2F0700528DA
:1045800000D3F570FEE0B07850B1717C0029EED018
:1045900008281CD2DFE800F01B0E161013161C189A
:1045A000F078401CC0B2F070072800D3F570F7E037
:1045B00021E02EE03C240BE04FF47A7408E040F256
:1045C000E73405E0642403E04FF4AF6400E0002426
:1045D00002F08AFEB16B0844B063A04200DDB46310
:1045E0003078042876D1F078401CC0B2F0700C28E6
:1045F00077D3F57075E03179032381F001013171D2
:104600003178012906D0022917D003292AD004299C
:104610006DD05FE0F17841B1012909D00229A6D11E
:104620003270F5707576F47370BD3070F57570BDCD
:104630003370F5703576B57094E0717881BBF178A0
:1046400005290BD2DFE801F0030507090C0074709F
:1046500004E0707002E0737000E07270347191E0F9
:104660000520F6E7B07860B1B16B02F021FE308D25
:10467000718D88422BD3B278062A23D0072A24D002
:1046800025E0F078401CC0B2B070082815D2DFE8F1
:1046900000F01404080A0C0E1012B6F922000DE006
:1046A00070E0F0790AE0B08C08E0F08C06E0307A37
:1046B00004E0308D02E0708D00E00020B06374747F
:1046C00034716AE0491E318501E0401C70857574C3
:1046D000B57034713078022854D003285DD0042896
:1046E000A5D1F078717E884265D2707670BDF07881
:1046F000052824D2DFE800F0030A11181F00B07C5F
:1047000010B10020B0741AE00120FBE7F07C10B17A
:104710000020F07413E00120FBE7307D10B1002091
:1047200030750CE00120FBE7707D10B10020707542
:1047300005E00120FBE7B07D18B10020B0753471B1
:10474000CFE70120FAE73078022802D0032805D00D
:104750000AE0717841B17570347170BDB17819B1EA
:10476000B5703471757470BD3179042881F0010120
:10477000317105D0022801D00328F4D13470F5E658
:10478000F573FBE7F078F17D884201D2F07570BDDA
:10479000C91C8842FBD3801EF8E7B0780028F6D108
:1047A000F078317E884201D2307670BDC91C8842D3
:1047B000FBD3801EF8E7C91C8842F6D3801E94E71D
:1047C0000000002010B5044602464FF480710348F3
:1047D000FEF7D5FA0248047010BD00000008014041
:1047E0006A00002070B500252C4605210120FDF748
:1047F00031F905440120FEF7C5F9641CE4B20A2C26
:10480000F3D30A20B5FBF0F080B270BD70B5FFF7AE
:10481000E9FF05F05FF96FF00B0105F012FB124D97
:10482000294605F06BF904460146284605F032FAA0
:104830000146204605F06CF80C4905F05FF904F0DC
:10484000D3FF4FF080420A4B03F0CAFB0022094B12
:1048500004F0BAFC04F038FC80B2B0F57A7F01D3E2
:1048600040F2E73070BD00003333534000401C4637
:104870006744E3BF0088E34010B50446007B01288D
:1048800002D12068FBF7EBFC002020606060A06094
:10489000207310BD0246012002F07F030B70D20985
:1048A00008D043F08003401C01F8013B0428F3DDED
:1048B0004FF0FF3070472DE9F041044600250068B5
:1048C0000F462E4610B10220207315E00120207300
:1048D0000846FBF795FC2060002808D0C4E9016772
:1048E00002E0206846556D1CA068A842F9D8BDE8D2
:1048F000F081206846556D1CA068A842F9D8666012
:104900008842F4D22660F2E72DE9FF5F9A4693468B
:1049100000251046DDF844900E9F139CFBF756FED1
:1049200006B2BBF1000F1FD006F111001FFA80F88C
:1049300007B10225109868B145F00405FBF746FE63
:10494000C7B24846FBF742FEC11901EB0800001D43
:104950001FFA80F80F9870B1012807D0022808D0FC
:10496000022004B0BDE8F09F0120FAE745F00C05F5
:1049700001E045F01405129808B145F024050098AF
:1049800060B3019850B345F0C0050098FBF71EFED8
:1049900007460198FBF71AFE391801EB0800001DC5
:1049A00087B239462046FFF786FF2068C0B13946F6
:1049B000FBF7F9FED4E90030411C102261601A5463
:1049C000D4E900010144781FFFF764FF00B200281A
:1049D00008DA2046FFF750FF0520C2E70320C0E7B2
:1049E0000420BEE7616823680844411C616000221E
:1049F0001A54D4E90030421C042162601954D4E9ED
:104A00000070421C4D2362603B54D4E90070421C8C
:104A1000626051233B54D4E90030471C5422676044
:104A20001A54D4E90070431C63603A54D4E900304E
:104A3000421C62601954D4E90020411C6160155485
:104A4000D4E90030411C4FEA1A2261601A54D4E9BB
:104A50000030421C626003F800A0D4E90030411C21
:104A6000320A61601A54D4E90020411C6160165476
:104A7000D4E90001084432465946FBF75FFD6068FF
:104A800030446060680736D5B9F1000F01D10FF2EC
:104A9000D8091098FBF79AFD86B2D4E90030411C82
:104AA000320A61601A54D4E90020411C6160165436
:104AB000D4E90001084432461099FBF73FFD6068D5
:104AC000304460604846FBF781FD86B2D4E900308F
:104AD000411C320A61601A54D4E90020411C616013
:104AE0001654D4E90001084432464946FBF726FD36
:104AF000606830446060280618D50098FBF766FDB2
:104B000086B2D4E90030411C320A61601A54D4E9FB
:104B10000020411C61601654D4E90001084432466B
:104B20000099FBF70BFD606830446060680618D59B
:104B30000198FBF74BFD85B2D4E90030411C2A0AED
:104B400061601A54D4E90020411C61601554D4E915
:104B5000000108442A460199FBF7F0FC60682844EC
:104B600060600020FDE60000000000002DE9FF4F1E
:104B700081B04FF000059046119C0F999A465FEA6C
:104B8000000BA9462A4608D1012005B0BDE8F08FE8
:104B9000232816D02B2814D06D1C0298405D0028C5
:104BA000F6D142F0300709B147F0010705EB0A06DC
:104BB0000E98B61C68B1012805D0022806D0032043
:104BC000E3E70220E1E747F0020701E047F00407CE
:104BD000B61CB8F1000F03D098F80000022807D0E7
:104BE000711D2046FFF767FE206848B3711D13E072
:104BF000002018F80010401C7D29FAD100F10409AA
:104C0000AAEB0900311A00912046C91CFFF753FE98
:104C10002068A8B10099C91CFBF7C5FDD4E90020A4
:104C2000411C61601754D4E9000101443046FFF78C
:104C300031FE002806DA2046FFF71EFE0520A4E715
:104C40000420A2E7616823680844411C2A0A6160C5
:104C50001A54D4E90020411C61601554D4E90001C4
:104C600008442A460299FBF769FC606828446060A2
:104C70000E9959B12368411C4FEA1B2261601A54F6
:104C8000D4E90030421C626003F800B0B8F1000FB4
:104C90000ED098F800000228D4E90001084409D099
:104CA00052464146FBF708FD616801EB0A0060606F
:104CB00000206AE74A464146FBF7FEFC616801EBCB
:104CC0000900F4E730B591B01546149C03460091F5
:104CD0000AA2302104A8FBF70BFB01200021CDE93B
:104CE0000204CDE900010A462B4604A90A20FFF779
:104CF0003DFF002800D0012011B030BD247379732E
:104D00002F25732F25732F7468696E672F70726F4C
:104D100070657274792F706F737400002DE9F0471D
:104D20004FF00007089C984616468A465FEA00093D
:104D30003D460AD10120BDE8F08756F8250018B39A
:104D4000FBF744FC6D1C0744EDB24545F5D308EB79
:104D50004800C519E91D2046AD1CFFF7ACFD2168D0
:104D6000A1B160688223421C62600B54D4E9000147
:104D700001442846FFF78EFD00B2002808DA2046DD
:104D8000FFF77AFD0420D6E70220D4E70320D2E71C
:104D9000616823680844411C4FEA192261601A5473
:104DA000D4E90030421C626003F80090002520E046
:104DB00056F82500FBF70AFC0746020AD4E9003042
:104DC000411C61601A54D4E90020411C61601754F1
:104DD000D4E90001084456F825103A46FBF7AEFB2B
:104DE000606823683844421C62606D1C03F800A0B0
:104DF000EDB24545DCD300209DE7F0B50446002028
:104E000001235D05106012E0275C166807F07F073C
:104E100007FB03661660265C360601D4401CF0BD15
:104E2000DB01AB4202D36FF00100F0BD401C8842B1
:104E3000EADB4FF0FF30F0BD4178022901D00120BC
:104E40007047817819B1012901D0FF207047C078DF
:104E5000704700002DE9F84F05460078DDE90A7B30
:104E600000F00F0900200E460090C9F341011446DE
:104E70008BF80010984609F0080A6A460421681C5D
:104E8000FFF7BBFF054400996D1C022942D35FEA7E
:104E9000C9703FD1288840BA2080801C88427AD8C7
:104EA0003EA1A81CFBF75CFB10B10F20BDE8F88FFA
:104EB0009BF8000020B101282DD002286BD12AE0F8
:104EC000BAF1000F67D12088401CFBF799F93060D8
:104ED000002860D02188491CFBF765FC2288A91CAA
:104EE0003068FBF7E9FB20880099081A801E80B221
:104EF0003880401CFBF784F9C8F8000038B13988C5
:104F0000491CFBF750FC3A882088AD1C33E0306820
:104F1000FBF7A5F93FE02088009A811C91423AD81E
:104F2000A91C08440C99008840BA08800C9890B3DA
:104F30002088401CFBF764F9306060B32188491C6D
:104F4000FBF731FC2288A91C3068FBF7B5FB2088F1
:104F50000099081A001F80B23880401CFBF750F9F6
:104F6000C8F800000028D2D03988491CFBF71BFC88
:104F70003A8820882D1D4119D8F80000FBF79CFBCA
:104F80002B213046FBF7D0FA28B923213046FBF716
:104F9000CBFA00288AD0FF2088E7000024637265DE
:104FA000710000004178022904D1817811B9C078DC
:104FB0000A2801D0012070470020704738B5044608
:104FC0000078FF210009421E0E2A01D3084638BD91
:104FD0000328FCD1002000906A460421601CFFF7E2
:104FE0000CFF20440099401C022907D32278D207E5
:104FF00004D1028852BA921C8A4201D9FF2038BDDE
:1050000004A1801CFBF7ACFA08B10F2038BD0320C7
:1050100038BD000024637265710000000146FF2066
:105020008A78002A0BD1CA78142A08D1087938B1B5
:10503000012805D0022803D0802803D00220704721
:1050400000207047012070473EB5002111480091B3
:1050500001910F4A02910260816001730175012480
:105060004FF460220461C2614160FDF749FB08B161
:10507000FDF746FA05200094CDE901406946054850
:10508000FDF7BCFA002801D0FDF73AFA3EBD00005A
:1050900000240140800000202DE9F04385B0002469
:1050A00030480094019402940394816941F02001F6
:1050B0008161816901F020010491816941F004015D
:1050C0008161816901F004010491816941F0080165
:1050D00081618069DFF8909000F008004FF470461D
:1050E0000490002231464846FDF749FEDFF87C80F7
:1050F0004FF48077002239464046FDF740FE0122FA
:1051000080214846FDF73BFEE02001258DE8310077
:1051100069464046FDF748FDCDE9005469464846DA
:105120000295FDF741FDCDE900650226CDE9024675
:1051300069464846FDF738FD00970396CDE90154CE
:1051400069464046FDF730FD802000901120CDE9F2
:1051500001050320039069464846FDF725FD05B08B
:10516000BDE8F08300100240000C0140000801403F
:105170000D4810B50B4901600C49416000214FF406
:1051800080428160C0E9031241618161C1610162B5
:10519000FDF700FE002803D0BDE81040FDF7B0B9D0
:1051A00010BD000000540040B0000020801A06002E
:1051B00010B586B00024174800940194029403941B
:1051C00004941349059401604721C0E9011440F299
:1051D000E731C0E903148461FEF784FB08B1FDF7F1
:1051E0008FF94FF48050009069460A48FEF7F2FBB1
:1051F00008B1FDF785F9049404A906480594FEF763
:105200003DFB002801D0FDF77BF906B010BD000082
:1052100000080040040100200C4810B50A49016054
:105220004FF4E1314160002181600C22C160C0E98E
:1052300004128161C161FEF78BFE002803D0BDE836
:105240001040FDF75DB910BD003801404C01002051
:105250000C4810B50A4901604FF416514160002115
:1052600081600C22C160C0E904128161C161FEF756
:105270006FFE002803D0BDE81040FDF741B910BD16
:105280000048004094010020FEE7FEE730B4002112
:10529000084B0A46002003EBC004401CC0B2625415
:1052A0008028F8D3491CC9B20829F3D330BC00F0D8
:1052B00059B90000DC0100202DE9FE4F0026171A25
:1052C0008146701E3546A3EB010A8846002F02DD99
:1052D0004FF0010102E003D14FF00001019102E023
:1052E000C7F100070190BAF1000F02DD4FF0010095
:1052F00002E003D14FF00000009002E0C7F1000A85
:1053000000905046574501DD3C4600E00446601CD5
:105310004FF0000B029016E008F0FF0109F0FF00CB
:105320000C9A00F015F83E445544A64202DD01995E
:10533000361B8944A54202DD00992D1B88440BF1E0
:1053400001001FFA80FB02998B45E5DBBDE8FE8F6B
:1053500030B5CC0801F0070301259D40EBB2064DA6
:1053600005EBC005C808285C0AB1184302E063EAEF
:105370000000C043285530BDDC0100202DE9F84F66
:105380001C46DDF828A0174688460546032A42D366
:10539000032C40D3BAF1640F01D94FF0640A4FF0E7
:1053A000010B2846CDF800B000F037F86D1CBF1E89
:1053B00007F0FF09EEB208F10100C5B2A41EE7B282
:1053C00006EB09000024A0F101080BE0002000908A
:1053D0002819C3B2C1B208F0FF023046FFF76CFFD4
:1053E000641CE4B2BC42F1D309FB0AF06421B0FBB7
:1053F000F1F800242F44D9467F1E0AE03019C2B2CA
:10540000FBB2C0B22946CDF80090FFF755FF641CEF
:10541000A4B24445F2D3BDE8F88F2DE9F8411C460B
:10542000079E88460746002A1FD0002C1DD0BD18B5
:105430006D1EEAB20B460096FFF73EFF4444641E21
:10544000E3B2EAB2E1B238460096FFF735FF3A46DA
:10545000E3B2414610460096FFF72EFFE3B2EAB2F0
:10546000E8B241460096FFF727FFBDE8F88110B586
:105470001420FDF787FB0021AE2000F0C7F90021C2
:10548000084600F0C3F90021102000F0BFF9002108
:10549000402000F0BBF90021812000F0B7F9002185
:1054A000CF2000F0B3F90021A12000F0AFF90021D6
:1054B000C82000F0ABF90021A62000F0A7F90021D8
:1054C000A82000F0A3F900213F2000F09FF900215F
:1054D000D32000F09BF90021084600F097F9002145
:1054E000D52000F093F90021802000F08FF90021F1
:1054F000D92000F08BF90021F12000F087F900217C
:10550000DA2000F083F90021122000F07FF9002159
:10551000DB2000F07BF90021302000F077F900213A
:10552000202000F073F90021022000F06FF9002123
:105530008D2000F06BF90021142000F067F9FFF7CF
:10554000A5FE0021AF2000F061F9BDE81040FFF793
:105550009DBE0346012000E05843491EC9B2FBD25C
:1055600070470000F0B5A3B00024154E402701ADF0
:1055700004F1B000C0B2002100F048F90021084653
:1055800000F044F90021102000F040F98DF804707B
:10559000002006EBC0012A18401C095DC0B2517002
:1055A0008028F6D364200090812301AA7821054841
:1055B000FDF7B4FC641CE4B2082CD9D323B0F0BDD1
:1055C000DC010020B00000202DE9FC4F1D4688467C
:1055D00081468B460090082B0DD0680700D0012033
:1055E00000EBD50069084843C0B2203A02F0FF0A38
:1055F0000026019046E00620F7E7082D10D00C2D7C
:1056000014D0102D16D0182D3FD122490AEBCA0014
:1056100001EB80000027845DE0070FD00B9A10E0BB
:105620001D490AEB4A0001EB4000F3E70AEB4A0090
:105630001A49EDE71A4901EB0A10EBE70B9830B372
:10564000002241464846FFF783FE7F1C640808F1AC
:105650000100FFB200F0FF08082FDDD309F10100BF
:1056600000F0FF09082D0AD00099A9EB0100B0EB6A
:10567000550F04D10BF10800894600F0FF0B761C92
:10568000D846F6B201988642B7D3BDE8FC8F012216
:10569000D7E7000086AB0008FA9E000822A10008A8
:1056A00096A500082DE9FC4F814600901E469246C3
:1056B00088468B46580700D0012000EBD600704387
:1056C0000025019041E0102E0ED0182E10D0202E73
:1056D00015D0402E3CD1204901EB4A200027445DE3
:1056E000E00711D00B9A12E01C4901EB4A10F5E7D4
:1056F00019490AEBCA00C83901EBC000EEE71649A8
:10570000803901EBCA10E9E70B9818B30022414633
:105710004846FFF71DFE7F1C640808F10100FFB238
:1057200000F0FF08082FDBD309F10100009900F019
:10573000FF09A9EB0100B04204D10BF10800894632
:1057400000F0FF0B6D1CD846ADB201988542BAD36C
:10575000BDE8FC8F0122DAE7CABF0008E2B8000802
:105760002DE9F84F0025DDE90A691F4692468B4670
:105770008046082E00D1022500241CE0381B401E64
:10578000C1B20A20FFF7E5FEBAFBF0F00A21B0FB38
:10579000F1F201FB1200CDF8009080B13030C2B2BE
:1057A00005EB560101FB0480C0B233465946FFF7B2
:1057B0000BFF641CE4B2BC42E0D3BDE8F88F05EBFC
:1057C000560101FB0480C0B233463022EEE72DE9DA
:1057D000F8411E46154688460446079F0BE03346AF
:1057E000414620460097FFF7EFFE082E0AD004EB53
:1057F0005600C4B26D1C2A78A2F120005E28EED9B2
:10580000BDE8F881A41DE4B2F4E700001CB501B1C5
:1058100040218DF804108DF80500642000900223CB
:1058200001AA78210148FDF779FB1CBDB0000020DA
:105830002DE9F0438BB005460024FAF7C7FEC7B246
:105840001DB1002069461C2F08D201200BB0BDE815
:10585000F0832A5D0A552855641CE4B2BC42F8D393
:105860000855002681468846344621E018F806008F
:105870002B2812D008DC202812D0232827D0252856
:1058800022D0262806D125E02F2817D03D2824D065
:105890003F2816D02855641C07E0281910A101E004
:1058A000281910A1FAF7FCFEE41C761CE4B2F6B24B
:1058B000BE42DBD305F804900020C7E728190AA1EF
:1058C000F0E7281909A1EDE7281909A1EAE7281945
:1058D00008A1E7E7281908A1E4E7281907A1E1E7EB
:1058E000253242002532300025324600253346005D
:1058F0002532350025323300253236002533440069
:105900002DE9FC5FFF4F00242546788E00287DD1CD
:105910004FF0640AA7F832A03879A14618B187F889
:105920000490FFF7B3FC38784FF00108012807D046
:10593000102602286BD003286AD0042869D1F2E32C
:105940000022102311462820CDF80080FFF7AAFE80
:105950001023012200213820CDF80080FFF7A2FE9D
:105960001023022200214820CDF80080FFF79AFE84
:10597000F87800B1012010230090E3A2194600201E
:10598000FFF725FFF878012801D0012000E0002072
:1059900000901023DDA220210020FFF718FFF878E7
:1059A000022801D0012000E0002000901023D8A29E
:1059B00030210020FFF70BFFF87800B10120102301
:1059C0000090032219461846FFF76CFEF87800B1E4
:1059D000012010230090042219462020FFF762FEC8
:1059E000F87800B1012010230090052219463020DC
:1059F000FFF758FEF87800B101201023009006222E
:105A000019464020FFF74EFEF87803E0F2E373E01A
:105A100021E21CE200B10120102300900722194668
:105A20005020FFF73FFEF878012801D0012000E068
:105A3000002010230090082220211846FFF732FE94
:105A4000F878012801D0012000E0002020210090FA
:105A5000102309220846FFF725FEF878012801D017
:105A6000012000E00020009010230A222021302095
:105A7000FFF718FEF878012801D0012000E000208F
:105A8000009010230B2220214020FFF70BFEF87816
:105A9000022801D0012000E00020102300900C22F9
:105AA00030211846FFF7FEFDF878022801D00120CA
:105AB00000E00020009010230D2230212020FFF76D
:105AC000F1FDF878022801D0012000E0002030210B
:105AD000009010230E220846FFF7E4FDF878022814
